{
  "address": "0xBb79bc65360e1d588b2966f7b4B0c25185FB6165",
  "abi": [
    {
      "inputs": [],
      "stateMutability": "nonpayable",
      "type": "constructor"
    },
    {
      "anonymous": false,
      "inputs": [
        {
          "indexed": true,
          "internalType": "address",
          "name": "owner",
          "type": "address"
        },
        {
          "indexed": true,
          "internalType": "address",
          "name": "approved",
          "type": "address"
        },
        {
          "indexed": true,
          "internalType": "uint256",
          "name": "tokenId",
          "type": "uint256"
        }
      ],
      "name": "Approval",
      "type": "event"
    },
    {
      "anonymous": false,
      "inputs": [
        {
          "indexed": true,
          "internalType": "address",
          "name": "owner",
          "type": "address"
        },
        {
          "indexed": true,
          "internalType": "address",
          "name": "operator",
          "type": "address"
        },
        {
          "indexed": false,
          "internalType": "bool",
          "name": "approved",
          "type": "bool"
        }
      ],
      "name": "ApprovalForAll",
      "type": "event"
    },
    {
      "anonymous": false,
      "inputs": [
        {
          "indexed": true,
          "internalType": "uint256",
          "name": "tokenId",
          "type": "uint256"
        },
        {
          "indexed": false,
          "internalType": "string",
          "name": "tokenURI",
          "type": "string"
        }
      ],
      "name": "CreatedLOUVRENFT",
      "type": "event"
    },
    {
      "anonymous": false,
      "inputs": [
        {
          "indexed": true,
          "internalType": "address",
          "name": "previousOwner",
          "type": "address"
        },
        {
          "indexed": true,
          "internalType": "address",
          "name": "newOwner",
          "type": "address"
        }
      ],
      "name": "OwnershipTransferred",
      "type": "event"
    },
    {
      "anonymous": false,
      "inputs": [
        {
          "indexed": true,
          "internalType": "address",
          "name": "from",
          "type": "address"
        },
        {
          "indexed": true,
          "internalType": "address",
          "name": "to",
          "type": "address"
        },
        {
          "indexed": true,
          "internalType": "uint256",
          "name": "tokenId",
          "type": "uint256"
        }
      ],
      "name": "Transfer",
      "type": "event"
    },
    {
      "inputs": [
        {
          "internalType": "address",
          "name": "to",
          "type": "address"
        },
        {
          "internalType": "uint256",
          "name": "tokenId",
          "type": "uint256"
        }
      ],
      "name": "approve",
      "outputs": [],
      "stateMutability": "nonpayable",
      "type": "function"
    },
    {
      "inputs": [
        {
          "internalType": "address",
          "name": "owner",
          "type": "address"
        }
      ],
      "name": "balanceOf",
      "outputs": [
        {
          "internalType": "uint256",
          "name": "",
          "type": "uint256"
        }
      ],
      "stateMutability": "view",
      "type": "function"
    },
    {
      "inputs": [
        {
          "internalType": "string",
          "name": "tokenURI",
          "type": "string"
        }
      ],
      "name": "create",
      "outputs": [],
      "stateMutability": "nonpayable",
      "type": "function"
    },
    {
      "inputs": [],
      "name": "getAllTokens",
      "outputs": [
        {
          "components": [
            {
              "internalType": "uint256",
              "name": "id",
              "type": "uint256"
            },
            {
              "internalType": "string",
              "name": "uri",
              "type": "string"
            }
          ],
          "internalType": "struct TokenOutputModel[]",
          "name": "",
          "type": "tuple[]"
        }
      ],
      "stateMutability": "view",
      "type": "function"
    },
    {
      "inputs": [
        {
          "internalType": "uint256",
          "name": "tokenId",
          "type": "uint256"
        }
      ],
      "name": "getApproved",
      "outputs": [
        {
          "internalType": "address",
          "name": "",
          "type": "address"
        }
      ],
      "stateMutability": "view",
      "type": "function"
    },
    {
      "inputs": [
        {
          "internalType": "address",
          "name": "owner",
          "type": "address"
        },
        {
          "internalType": "address",
          "name": "operator",
          "type": "address"
        }
      ],
      "name": "isApprovedForAll",
      "outputs": [
        {
          "internalType": "bool",
          "name": "",
          "type": "bool"
        }
      ],
      "stateMutability": "view",
      "type": "function"
    },
    {
      "inputs": [],
      "name": "name",
      "outputs": [
        {
          "internalType": "string",
          "name": "",
          "type": "string"
        }
      ],
      "stateMutability": "view",
      "type": "function"
    },
    {
      "inputs": [],
      "name": "owner",
      "outputs": [
        {
          "internalType": "address",
          "name": "",
          "type": "address"
        }
      ],
      "stateMutability": "view",
      "type": "function"
    },
    {
      "inputs": [
        {
          "internalType": "uint256",
          "name": "tokenId",
          "type": "uint256"
        }
      ],
      "name": "ownerOf",
      "outputs": [
        {
          "internalType": "address",
          "name": "",
          "type": "address"
        }
      ],
      "stateMutability": "view",
      "type": "function"
    },
    {
      "inputs": [],
      "name": "renounceOwnership",
      "outputs": [],
      "stateMutability": "nonpayable",
      "type": "function"
    },
    {
      "inputs": [
        {
          "internalType": "address",
          "name": "from",
          "type": "address"
        },
        {
          "internalType": "address",
          "name": "to",
          "type": "address"
        },
        {
          "internalType": "uint256",
          "name": "tokenId",
          "type": "uint256"
        }
      ],
      "name": "safeTransferFrom",
      "outputs": [],
      "stateMutability": "nonpayable",
      "type": "function"
    },
    {
      "inputs": [
        {
          "internalType": "address",
          "name": "from",
          "type": "address"
        },
        {
          "internalType": "address",
          "name": "to",
          "type": "address"
        },
        {
          "internalType": "uint256",
          "name": "tokenId",
          "type": "uint256"
        },
        {
          "internalType": "bytes",
          "name": "_data",
          "type": "bytes"
        }
      ],
      "name": "safeTransferFrom",
      "outputs": [],
      "stateMutability": "nonpayable",
      "type": "function"
    },
    {
      "inputs": [
        {
          "internalType": "address",
          "name": "operator",
          "type": "address"
        },
        {
          "internalType": "bool",
          "name": "approved",
          "type": "bool"
        }
      ],
      "name": "setApprovalForAll",
      "outputs": [],
      "stateMutability": "nonpayable",
      "type": "function"
    },
    {
      "inputs": [
        {
          "internalType": "bytes4",
          "name": "interfaceId",
          "type": "bytes4"
        }
      ],
      "name": "supportsInterface",
      "outputs": [
        {
          "internalType": "bool",
          "name": "",
          "type": "bool"
        }
      ],
      "stateMutability": "view",
      "type": "function"
    },
    {
      "inputs": [],
      "name": "symbol",
      "outputs": [
        {
          "internalType": "string",
          "name": "",
          "type": "string"
        }
      ],
      "stateMutability": "view",
      "type": "function"
    },
    {
      "inputs": [],
      "name": "tokenCounter",
      "outputs": [
        {
          "internalType": "uint256",
          "name": "",
          "type": "uint256"
        }
      ],
      "stateMutability": "view",
      "type": "function"
    },
    {
      "inputs": [
        {
          "internalType": "uint256",
          "name": "tokenId",
          "type": "uint256"
        }
      ],
      "name": "tokenURI",
      "outputs": [
        {
          "internalType": "string",
          "name": "",
          "type": "string"
        }
      ],
      "stateMutability": "view",
      "type": "function"
    },
    {
      "inputs": [
        {
          "internalType": "address",
          "name": "from",
          "type": "address"
        },
        {
          "internalType": "address",
          "name": "to",
          "type": "address"
        },
        {
          "internalType": "uint256",
          "name": "tokenId",
          "type": "uint256"
        }
      ],
      "name": "transferFrom",
      "outputs": [],
      "stateMutability": "nonpayable",
      "type": "function"
    },
    {
      "inputs": [
        {
          "internalType": "address",
          "name": "newOwner",
          "type": "address"
        }
      ],
      "name": "transferOwnership",
      "outputs": [],
      "stateMutability": "nonpayable",
      "type": "function"
    }
  ],
  "transactionHash": "0x9e8426d529546db6c4d2f6df202d365edb16c754c1c8094ffe7a7649af72af4d",
  "args": [],
  "numDeployments": 5,
  "solcInputHash": "c7c57f869f30d5256c2fb56dd6344a3a",
  "bytecode": "0x60806040523480156200001157600080fd5b506040518060400160405280600a81526020017f4c4f55565245204e4654000000000000000000000000000000000000000000008152506040518060400160405280600981526020017f6c6f757672654e46540000000000000000000000000000000000000000000000815250816000908051906020019062000096929190620001ae565b508060019080519060200190620000af929190620001ae565b505050620000d2620000c6620000e060201b60201c565b620000e860201b60201c565b6000600881905550620002c3565b600033905090565b6000600760009054906101000a900473ffffffffffffffffffffffffffffffffffffffff16905081600760006101000a81548173ffffffffffffffffffffffffffffffffffffffff021916908373ffffffffffffffffffffffffffffffffffffffff1602179055508173ffffffffffffffffffffffffffffffffffffffff168173ffffffffffffffffffffffffffffffffffffffff167f8be0079c531659141344cd1fd0a4f28419497f9722a3daafe3b4186f6b6457e060405160405180910390a35050565b828054620001bc906200025e565b90600052602060002090601f016020900481019282620001e057600085556200022c565b82601f10620001fb57805160ff19168380011785556200022c565b828001600101855582156200022c579182015b828111156200022b5782518255916020019190600101906200020e565b5b5090506200023b91906200023f565b5090565b5b808211156200025a57600081600090555060010162000240565b5090565b600060028204905060018216806200027757607f821691505b602082108114156200028e576200028d62000294565b5b50919050565b7f4e487b7100000000000000000000000000000000000000000000000000000000600052602260045260246000fd5b61334480620002d36000396000f3fe608060405234801561001057600080fd5b50600436106101215760003560e01c8063715018a6116100ad578063b88d4fde11610071578063b88d4fde146102f4578063c87b56dd14610310578063d082e38114610340578063e985e9c51461035e578063f2fde38b1461038e57610121565b8063715018a6146102765780638da5cb5b1461028057806395d89b411461029e578063a22cb465146102bc578063b6a46b3b146102d857610121565b806323b872dd116100f457806323b872dd146101c05780632a5c792a146101dc57806342842e0e146101fa5780636352211e1461021657806370a082311461024657610121565b806301ffc9a71461012657806306fdde0314610156578063081812fc14610174578063095ea7b3146101a4575b600080fd5b610140600480360381019061013b91906120e1565b6103aa565b60405161014d91906126b2565b60405180910390f35b61015e61048c565b60405161016b91906126cd565b60405180910390f35b61018e60048036038101906101899190612184565b61051e565b60405161019b9190612629565b60405180910390f35b6101be60048036038101906101b991906120a1565b6105a3565b005b6101da60048036038101906101d59190611f8b565b6106bb565b005b6101e461071b565b6040516101f19190612690565b60405180910390f35b610214600480360381019061020f9190611f8b565b6107f0565b005b610230600480360381019061022b9190612184565b610810565b60405161023d9190612629565b60405180910390f35b610260600480360381019061025b9190611f1e565b6108c2565b60405161026d919061292f565b60405180910390f35b61027e61097a565b005b610288610a02565b6040516102959190612629565b60405180910390f35b6102a6610a2c565b6040516102b391906126cd565b60405180910390f35b6102d660048036038101906102d19190612061565b610abe565b005b6102f260048036038101906102ed919061213b565b610ad4565b005b61030e60048036038101906103099190611fde565b610bbd565b005b61032a60048036038101906103259190612184565b610c1f565b60405161033791906126cd565b60405180910390f35b610348610d71565b604051610355919061292f565b60405180910390f35b61037860048036038101906103739190611f4b565b610d77565b60405161038591906126b2565b60405180910390f35b6103a860048036038101906103a39190611f1e565b610e0b565b005b60007f80ac58cd000000000000000000000000000000000000000000000000000000007bffffffffffffffffffffffffffffffffffffffffffffffffffffffff1916827bffffffffffffffffffffffffffffffffffffffffffffffffffffffff1916148061047557507f5b5e139f000000000000000000000000000000000000000000000000000000007bffffffffffffffffffffffffffffffffffffffffffffffffffffffff1916827bffffffffffffffffffffffffffffffffffffffffffffffffffffffff1916145b80610485575061048482610f03565b5b9050919050565b60606000805461049b90612bcf565b80601f01602080910402602001604051908101604052809291908181526020018280546104c790612bcf565b80156105145780601f106104e957610100808354040283529160200191610514565b820191906000526020600020905b8154815290600101906020018083116104f757829003601f168201915b5050505050905090565b600061052982610f6d565b610568576040517f08c379a000000000000000000000000000000000000000000000000000000000815260040161055f9061288f565b60405180910390fd5b6004600083815260200190815260200160002060009054906101000a900473ffffffffffffffffffffffffffffffffffffffff169050919050565b60006105ae82610810565b90508073ffffffffffffffffffffffffffffffffffffffff168373ffffffffffffffffffffffffffffffffffffffff16141561061f576040517f08c379a0000000000000000000000000000000000000000000000000000000008152600401610616906128ef565b60405180910390fd5b8073ffffffffffffffffffffffffffffffffffffffff1661063e610fd9565b73ffffffffffffffffffffffffffffffffffffffff16148061066d575061066c81610667610fd9565b610d77565b5b6106ac576040517f08c379a00000000000000000000000000000000000000000000000000000000081526004016106a3906127cf565b60405180910390fd5b6106b68383610fe1565b505050565b6106cc6106c6610fd9565b8261109a565b61070b576040517f08c379a00000000000000000000000000000000000000000000000000000000081526004016107029061290f565b60405180910390fd5b610716838383611178565b505050565b60606000600160085461072e9190612a5e565b905060008167ffffffffffffffff81111561074c5761074b612d68565b5b60405190808252806020026020018201604052801561078557816020015b610772611d18565b81526020019060019003908161076a5790505b50905060005b828110156107e757600061079e82610c1f565b90506040518060400160405280838152602001828152508383815181106107c8576107c7612d39565b5b60200260200101819052505080806107df90612c32565b91505061078b565b50809250505090565b61080b83838360405180602001604052806000815250610bbd565b505050565b6000806002600084815260200190815260200160002060009054906101000a900473ffffffffffffffffffffffffffffffffffffffff169050600073ffffffffffffffffffffffffffffffffffffffff168173ffffffffffffffffffffffffffffffffffffffff1614156108b9576040517f08c379a00000000000000000000000000000000000000000000000000000000081526004016108b09061280f565b60405180910390fd5b80915050919050565b60008073ffffffffffffffffffffffffffffffffffffffff168273ffffffffffffffffffffffffffffffffffffffff161415610933576040517f08c379a000000000000000000000000000000000000000000000000000000000815260040161092a906127ef565b60405180910390fd5b600360008373ffffffffffffffffffffffffffffffffffffffff1673ffffffffffffffffffffffffffffffffffffffff168152602001908152602001600020549050919050565b610982610fd9565b73ffffffffffffffffffffffffffffffffffffffff166109a0610a02565b73ffffffffffffffffffffffffffffffffffffffff16146109f6576040517f08c379a00000000000000000000000000000000000000000000000000000000081526004016109ed906128af565b60405180910390fd5b610a0060006113df565b565b6000600760009054906101000a900473ffffffffffffffffffffffffffffffffffffffff16905090565b606060018054610a3b90612bcf565b80601f0160208091040260200160405190810160405280929190818152602001828054610a6790612bcf565b8015610ab45780601f10610a8957610100808354040283529160200191610ab4565b820191906000526020600020905b815481529060010190602001808311610a9757829003601f168201915b5050505050905090565b610ad0610ac9610fd9565b83836114a5565b5050565b610adc610fd9565b73ffffffffffffffffffffffffffffffffffffffff16610afa610a02565b73ffffffffffffffffffffffffffffffffffffffff1614610b50576040517f08c379a0000000000000000000000000000000000000000000000000000000008152600401610b47906128af565b60405180910390fd5b610b5c33600854611612565b610b6860085482611630565b6008547feda424b849af8b359a68d99d6e21e06d5ed56060cb0172c57ec8a1d4b64863f582604051610b9a91906126cd565b60405180910390a260086000815480929190610bb590612c32565b919050555050565b610bce610bc8610fd9565b8361109a565b610c0d576040517f08c379a0000000000000000000000000000000000000000000000000000000008152600401610c049061290f565b60405180910390fd5b610c19848484846116a4565b50505050565b6060610c2a82610f6d565b610c69576040517f08c379a0000000000000000000000000000000000000000000000000000000008152600401610c609061286f565b60405180910390fd5b6000600660008481526020019081526020016000208054610c8990612bcf565b80601f0160208091040260200160405190810160405280929190818152602001828054610cb590612bcf565b8015610d025780601f10610cd757610100808354040283529160200191610d02565b820191906000526020600020905b815481529060010190602001808311610ce557829003601f168201915b505050505090506000610d13611700565b9050600081511415610d29578192505050610d6c565b600082511115610d5e578082604051602001610d46929190612605565b60405160208183030381529060405292505050610d6c565b610d6784611717565b925050505b919050565b60085481565b6000600560008473ffffffffffffffffffffffffffffffffffffffff1673ffffffffffffffffffffffffffffffffffffffff16815260200190815260200160002060008373ffffffffffffffffffffffffffffffffffffffff1673ffffffffffffffffffffffffffffffffffffffff16815260200190815260200160002060009054906101000a900460ff16905092915050565b610e13610fd9565b73ffffffffffffffffffffffffffffffffffffffff16610e31610a02565b73ffffffffffffffffffffffffffffffffffffffff1614610e87576040517f08c379a0000000000000000000000000000000000000000000000000000000008152600401610e7e906128af565b60405180910390fd5b600073ffffffffffffffffffffffffffffffffffffffff168173ffffffffffffffffffffffffffffffffffffffff161415610ef7576040517f08c379a0000000000000000000000000000000000000000000000000000000008152600401610eee9061270f565b60405180910390fd5b610f00816113df565b50565b60007f01ffc9a7000000000000000000000000000000000000000000000000000000007bffffffffffffffffffffffffffffffffffffffffffffffffffffffff1916827bffffffffffffffffffffffffffffffffffffffffffffffffffffffff1916149050919050565b60008073ffffffffffffffffffffffffffffffffffffffff166002600084815260200190815260200160002060009054906101000a900473ffffffffffffffffffffffffffffffffffffffff1673ffffffffffffffffffffffffffffffffffffffff1614159050919050565b600033905090565b816004600083815260200190815260200160002060006101000a81548173ffffffffffffffffffffffffffffffffffffffff021916908373ffffffffffffffffffffffffffffffffffffffff160217905550808273ffffffffffffffffffffffffffffffffffffffff1661105483610810565b73ffffffffffffffffffffffffffffffffffffffff167f8c5be1e5ebec7d5bd14f71427d1e84f3dd0314c0f7b2291e5b200ac8c7c3b92560405160405180910390a45050565b60006110a582610f6d565b6110e4576040517f08c379a00000000000000000000000000000000000000000000000000000000081526004016110db906127af565b60405180910390fd5b60006110ef83610810565b90508073ffffffffffffffffffffffffffffffffffffffff168473ffffffffffffffffffffffffffffffffffffffff16148061115e57508373ffffffffffffffffffffffffffffffffffffffff166111468461051e565b73ffffffffffffffffffffffffffffffffffffffff16145b8061116f575061116e8185610d77565b5b91505092915050565b8273ffffffffffffffffffffffffffffffffffffffff1661119882610810565b73ffffffffffffffffffffffffffffffffffffffff16146111ee576040517f08c379a00000000000000000000000000000000000000000000000000000000081526004016111e59061272f565b60405180910390fd5b600073ffffffffffffffffffffffffffffffffffffffff168273ffffffffffffffffffffffffffffffffffffffff16141561125e576040517f08c379a00000000000000000000000000000000000000000000000000000000081526004016112559061276f565b60405180910390fd5b6112698383836117be565b611274600082610fe1565b6001600360008573ffffffffffffffffffffffffffffffffffffffff1673ffffffffffffffffffffffffffffffffffffffff16815260200190815260200160002060008282546112c49190612ae5565b925050819055506001600360008473ffffffffffffffffffffffffffffffffffffffff1673ffffffffffffffffffffffffffffffffffffffff168152602001908152602001600020600082825461131b9190612a5e565b92505081905550816002600083815260200190815260200160002060006101000a81548173ffffffffffffffffffffffffffffffffffffffff021916908373ffffffffffffffffffffffffffffffffffffffff160217905550808273ffffffffffffffffffffffffffffffffffffffff168473ffffffffffffffffffffffffffffffffffffffff167fddf252ad1be2c89b69c2b068fc378daa952ba7f163c4a11628f55a4df523b3ef60405160405180910390a46113da8383836117c3565b505050565b6000600760009054906101000a900473ffffffffffffffffffffffffffffffffffffffff16905081600760006101000a81548173ffffffffffffffffffffffffffffffffffffffff021916908373ffffffffffffffffffffffffffffffffffffffff1602179055508173ffffffffffffffffffffffffffffffffffffffff168173ffffffffffffffffffffffffffffffffffffffff167f8be0079c531659141344cd1fd0a4f28419497f9722a3daafe3b4186f6b6457e060405160405180910390a35050565b8173ffffffffffffffffffffffffffffffffffffffff168373ffffffffffffffffffffffffffffffffffffffff161415611514576040517f08c379a000000000000000000000000000000000000000000000000000000000815260040161150b9061278f565b60405180910390fd5b80600560008573ffffffffffffffffffffffffffffffffffffffff1673ffffffffffffffffffffffffffffffffffffffff16815260200190815260200160002060008473ffffffffffffffffffffffffffffffffffffffff1673ffffffffffffffffffffffffffffffffffffffff16815260200190815260200160002060006101000a81548160ff0219169083151502179055508173ffffffffffffffffffffffffffffffffffffffff168373ffffffffffffffffffffffffffffffffffffffff167f17307eab39ab6107e8899845ad3d59bd9653f200f220920489ca2b5937696c318360405161160591906126b2565b60405180910390a3505050565b61162c8282604051806020016040528060008152506117c8565b5050565b61163982610f6d565b611678576040517f08c379a000000000000000000000000000000000000000000000000000000000815260040161166f9061282f565b60405180910390fd5b8060066000848152602001908152602001600020908051906020019061169f929190611d32565b505050565b6116af848484611178565b6116bb84848484611823565b6116fa576040517f08c379a00000000000000000000000000000000000000000000000000000000081526004016116f1906126ef565b60405180910390fd5b50505050565b606060405180602001604052806000815250905090565b606061172282610f6d565b611761576040517f08c379a0000000000000000000000000000000000000000000000000000000008152600401611758906128cf565b60405180910390fd5b600061176b611700565b9050600081511161178b57604051806020016040528060008152506117b6565b80611795846119ba565b6040516020016117a6929190612605565b6040516020818303038152906040525b915050919050565b505050565b505050565b6117d28383611b1b565b6117df6000848484611823565b61181e576040517f08c379a0000000000000000000000000000000000000000000000000000000008152600401611815906126ef565b60405180910390fd5b505050565b60006118448473ffffffffffffffffffffffffffffffffffffffff16611cf5565b156119ad578373ffffffffffffffffffffffffffffffffffffffff1663150b7a0261186d610fd9565b8786866040518563ffffffff1660e01b815260040161188f9493929190612644565b602060405180830381600087803b1580156118a957600080fd5b505af19250505080156118da57506040513d601f19601f820116820180604052508101906118d7919061210e565b60015b61195d573d806000811461190a576040519150601f19603f3d011682016040523d82523d6000602084013e61190f565b606091505b50600081511415611955576040517f08c379a000000000000000000000000000000000000000000000000000000000815260040161194c906126ef565b60405180910390fd5b805181602001fd5b63150b7a0260e01b7bffffffffffffffffffffffffffffffffffffffffffffffffffffffff1916817bffffffffffffffffffffffffffffffffffffffffffffffffffffffff1916149150506119b2565b600190505b949350505050565b60606000821415611a02576040518060400160405280600181526020017f30000000000000000000000000000000000000000000000000000000000000008152509050611b16565b600082905060005b60008214611a34578080611a1d90612c32565b915050600a82611a2d9190612ab4565b9150611a0a565b60008167ffffffffffffffff811115611a5057611a4f612d68565b5b6040519080825280601f01601f191660200182016040528015611a825781602001600182028036833780820191505090505b5090505b60008514611b0f57600182611a9b9190612ae5565b9150600a85611aaa9190612c7b565b6030611ab69190612a5e565b60f81b818381518110611acc57611acb612d39565b5b60200101907effffffffffffffffffffffffffffffffffffffffffffffffffffffffffffff1916908160001a905350600a85611b089190612ab4565b9450611a86565b8093505050505b919050565b600073ffffffffffffffffffffffffffffffffffffffff168273ffffffffffffffffffffffffffffffffffffffff161415611b8b576040517f08c379a0000000000000000000000000000000000000000000000000000000008152600401611b829061284f565b60405180910390fd5b611b9481610f6d565b15611bd4576040517f08c379a0000000000000000000000000000000000000000000000000000000008152600401611bcb9061274f565b60405180910390fd5b611be0600083836117be565b6001600360008473ffffffffffffffffffffffffffffffffffffffff1673ffffffffffffffffffffffffffffffffffffffff1681526020019081526020016000206000828254611c309190612a5e565b92505081905550816002600083815260200190815260200160002060006101000a81548173ffffffffffffffffffffffffffffffffffffffff021916908373ffffffffffffffffffffffffffffffffffffffff160217905550808273ffffffffffffffffffffffffffffffffffffffff16600073ffffffffffffffffffffffffffffffffffffffff167fddf252ad1be2c89b69c2b068fc378daa952ba7f163c4a11628f55a4df523b3ef60405160405180910390a4611cf1600083836117c3565b5050565b6000808273ffffffffffffffffffffffffffffffffffffffff163b119050919050565b604051806040016040528060008152602001606081525090565b828054611d3e90612bcf565b90600052602060002090601f016020900481019282611d605760008555611da7565b82601f10611d7957805160ff1916838001178555611da7565b82800160010185558215611da7579182015b82811115611da6578251825591602001919060010190611d8b565b5b509050611db49190611db8565b5090565b5b80821115611dd1576000816000905550600101611db9565b5090565b6000611de8611de38461296f565b61294a565b905082815260208101848484011115611e0457611e03612d9c565b5b611e0f848285612b8d565b509392505050565b6000611e2a611e25846129a0565b61294a565b905082815260208101848484011115611e4657611e45612d9c565b5b611e51848285612b8d565b509392505050565b600081359050611e68816132b2565b92915050565b600081359050611e7d816132c9565b92915050565b600081359050611e92816132e0565b92915050565b600081519050611ea7816132e0565b92915050565b600082601f830112611ec257611ec1612d97565b5b8135611ed2848260208601611dd5565b91505092915050565b600082601f830112611ef057611eef612d97565b5b8135611f00848260208601611e17565b91505092915050565b600081359050611f18816132f7565b92915050565b600060208284031215611f3457611f33612da6565b5b6000611f4284828501611e59565b91505092915050565b60008060408385031215611f6257611f61612da6565b5b6000611f7085828601611e59565b9250506020611f8185828601611e59565b9150509250929050565b600080600060608486031215611fa457611fa3612da6565b5b6000611fb286828701611e59565b9350506020611fc386828701611e59565b9250506040611fd486828701611f09565b9150509250925092565b60008060008060808587031215611ff857611ff7612da6565b5b600061200687828801611e59565b945050602061201787828801611e59565b935050604061202887828801611f09565b925050606085013567ffffffffffffffff81111561204957612048612da1565b5b61205587828801611ead565b91505092959194509250565b6000806040838503121561207857612077612da6565b5b600061208685828601611e59565b925050602061209785828601611e6e565b9150509250929050565b600080604083850312156120b8576120b7612da6565b5b60006120c685828601611e59565b92505060206120d785828601611f09565b9150509250929050565b6000602082840312156120f7576120f6612da6565b5b600061210584828501611e83565b91505092915050565b60006020828403121561212457612123612da6565b5b600061213284828501611e98565b91505092915050565b60006020828403121561215157612150612da6565b5b600082013567ffffffffffffffff81111561216f5761216e612da1565b5b61217b84828501611edb565b91505092915050565b60006020828403121561219a57612199612da6565b5b60006121a884828501611f09565b91505092915050565b60006121bd83836125aa565b905092915050565b6121ce81612b19565b82525050565b60006121df826129e1565b6121e98185612a0f565b9350836020820285016121fb856129d1565b8060005b85811015612237578484038952815161221885826121b1565b945061222383612a02565b925060208a019950506001810190506121ff565b50829750879550505050505092915050565b61225281612b2b565b82525050565b6000612263826129ec565b61226d8185612a20565b935061227d818560208601612b9c565b61228681612dab565b840191505092915050565b600061229c826129f7565b6122a68185612a31565b93506122b6818560208601612b9c565b6122bf81612dab565b840191505092915050565b60006122d5826129f7565b6122df8185612a42565b93506122ef818560208601612b9c565b6122f881612dab565b840191505092915050565b600061230e826129f7565b6123188185612a53565b9350612328818560208601612b9c565b80840191505092915050565b6000612341603283612a42565b915061234c82612dbc565b604082019050919050565b6000612364602683612a42565b915061236f82612e0b565b604082019050919050565b6000612387602583612a42565b915061239282612e5a565b604082019050919050565b60006123aa601c83612a42565b91506123b582612ea9565b602082019050919050565b60006123cd602483612a42565b91506123d882612ed2565b604082019050919050565b60006123f0601983612a42565b91506123fb82612f21565b602082019050919050565b6000612413602c83612a42565b915061241e82612f4a565b604082019050919050565b6000612436603883612a42565b915061244182612f99565b604082019050919050565b6000612459602a83612a42565b915061246482612fe8565b604082019050919050565b600061247c602983612a42565b915061248782613037565b604082019050919050565b600061249f602e83612a42565b91506124aa82613086565b604082019050919050565b60006124c2602083612a42565b91506124cd826130d5565b602082019050919050565b60006124e5603183612a42565b91506124f0826130fe565b604082019050919050565b6000612508602c83612a42565b91506125138261314d565b604082019050919050565b600061252b602083612a42565b91506125368261319c565b602082019050919050565b600061254e602f83612a42565b9150612559826131c5565b604082019050919050565b6000612571602183612a42565b915061257c82613214565b604082019050919050565b6000612594603183612a42565b915061259f82613263565b604082019050919050565b60006040830160008301516125c260008601826125e7565b50602083015184820360208601526125da8282612291565b9150508091505092915050565b6125f081612b83565b82525050565b6125ff81612b83565b82525050565b60006126118285612303565b915061261d8284612303565b91508190509392505050565b600060208201905061263e60008301846121c5565b92915050565b600060808201905061265960008301876121c5565b61266660208301866121c5565b61267360408301856125f6565b81810360608301526126858184612258565b905095945050505050565b600060208201905081810360008301526126aa81846121d4565b905092915050565b60006020820190506126c76000830184612249565b92915050565b600060208201905081810360008301526126e781846122ca565b905092915050565b6000602082019050818103600083015261270881612334565b9050919050565b6000602082019050818103600083015261272881612357565b9050919050565b600060208201905081810360008301526127488161237a565b9050919050565b600060208201905081810360008301526127688161239d565b9050919050565b60006020820190508181036000830152612788816123c0565b9050919050565b600060208201905081810360008301526127a8816123e3565b9050919050565b600060208201905081810360008301526127c881612406565b9050919050565b600060208201905081810360008301526127e881612429565b9050919050565b600060208201905081810360008301526128088161244c565b9050919050565b600060208201905081810360008301526128288161246f565b9050919050565b6000602082019050818103600083015261284881612492565b9050919050565b60006020820190508181036000830152612868816124b5565b9050919050565b60006020820190508181036000830152612888816124d8565b9050919050565b600060208201905081810360008301526128a8816124fb565b9050919050565b600060208201905081810360008301526128c88161251e565b9050919050565b600060208201905081810360008301526128e881612541565b9050919050565b6000602082019050818103600083015261290881612564565b9050919050565b6000602082019050818103600083015261292881612587565b9050919050565b600060208201905061294460008301846125f6565b92915050565b6000612954612965565b90506129608282612c01565b919050565b6000604051905090565b600067ffffffffffffffff82111561298a57612989612d68565b5b61299382612dab565b9050602081019050919050565b600067ffffffffffffffff8211156129bb576129ba612d68565b5b6129c482612dab565b9050602081019050919050565b6000819050602082019050919050565b600081519050919050565b600081519050919050565b600081519050919050565b6000602082019050919050565b600082825260208201905092915050565b600082825260208201905092915050565b600082825260208201905092915050565b600082825260208201905092915050565b600081905092915050565b6000612a6982612b83565b9150612a7483612b83565b9250827fffffffffffffffffffffffffffffffffffffffffffffffffffffffffffffffff03821115612aa957612aa8612cac565b5b828201905092915050565b6000612abf82612b83565b9150612aca83612b83565b925082612ada57612ad9612cdb565b5b828204905092915050565b6000612af082612b83565b9150612afb83612b83565b925082821015612b0e57612b0d612cac565b5b828203905092915050565b6000612b2482612b63565b9050919050565b60008115159050919050565b60007fffffffff0000000000000000000000000000000000000000000000000000000082169050919050565b600073ffffffffffffffffffffffffffffffffffffffff82169050919050565b6000819050919050565b82818337600083830152505050565b60005b83811015612bba578082015181840152602081019050612b9f565b83811115612bc9576000848401525b50505050565b60006002820490506001821680612be757607f821691505b60208210811415612bfb57612bfa612d0a565b5b50919050565b612c0a82612dab565b810181811067ffffffffffffffff82111715612c2957612c28612d68565b5b80604052505050565b6000612c3d82612b83565b91507fffffffffffffffffffffffffffffffffffffffffffffffffffffffffffffffff821415612c7057612c6f612cac565b5b600182019050919050565b6000612c8682612b83565b9150612c9183612b83565b925082612ca157612ca0612cdb565b5b828206905092915050565b7f4e487b7100000000000000000000000000000000000000000000000000000000600052601160045260246000fd5b7f4e487b7100000000000000000000000000000000000000000000000000000000600052601260045260246000fd5b7f4e487b7100000000000000000000000000000000000000000000000000000000600052602260045260246000fd5b7f4e487b7100000000000000000000000000000000000000000000000000000000600052603260045260246000fd5b7f4e487b7100000000000000000000000000000000000000000000000000000000600052604160045260246000fd5b600080fd5b600080fd5b600080fd5b600080fd5b6000601f19601f8301169050919050565b7f4552433732313a207472616e7366657220746f206e6f6e20455243373231526560008201527f63656976657220696d706c656d656e7465720000000000000000000000000000602082015250565b7f4f776e61626c653a206e6577206f776e657220697320746865207a65726f206160008201527f6464726573730000000000000000000000000000000000000000000000000000602082015250565b7f4552433732313a207472616e736665722066726f6d20696e636f72726563742060008201527f6f776e6572000000000000000000000000000000000000000000000000000000602082015250565b7f4552433732313a20746f6b656e20616c7265616479206d696e74656400000000600082015250565b7f4552433732313a207472616e7366657220746f20746865207a65726f2061646460008201527f7265737300000000000000000000000000000000000000000000000000000000602082015250565b7f4552433732313a20617070726f766520746f2063616c6c657200000000000000600082015250565b7f4552433732313a206f70657261746f7220717565727920666f72206e6f6e657860008201527f697374656e7420746f6b656e0000000000000000000000000000000000000000602082015250565b7f4552433732313a20617070726f76652063616c6c6572206973206e6f74206f7760008201527f6e6572206e6f7220617070726f76656420666f7220616c6c0000000000000000602082015250565b7f4552433732313a2062616c616e636520717565727920666f7220746865207a6560008201527f726f206164647265737300000000000000000000000000000000000000000000602082015250565b7f4552433732313a206f776e657220717565727920666f72206e6f6e657869737460008201527f656e7420746f6b656e0000000000000000000000000000000000000000000000602082015250565b7f45524337323155524953746f726167653a2055524920736574206f66206e6f6e60008201527f6578697374656e7420746f6b656e000000000000000000000000000000000000602082015250565b7f4552433732313a206d696e7420746f20746865207a65726f2061646472657373600082015250565b7f45524337323155524953746f726167653a2055524920717565727920666f722060008201527f6e6f6e6578697374656e7420746f6b656e000000000000000000000000000000602082015250565b7f4552433732313a20617070726f76656420717565727920666f72206e6f6e657860008201527f697374656e7420746f6b656e0000000000000000000000000000000000000000602082015250565b7f4f776e61626c653a2063616c6c6572206973206e6f7420746865206f776e6572600082015250565b7f4552433732314d657461646174613a2055524920717565727920666f72206e6f60008201527f6e6578697374656e7420746f6b656e0000000000000000000000000000000000602082015250565b7f4552433732313a20617070726f76616c20746f2063757272656e74206f776e6560008201527f7200000000000000000000000000000000000000000000000000000000000000602082015250565b7f4552433732313a207472616e736665722063616c6c6572206973206e6f74206f60008201527f776e6572206e6f7220617070726f766564000000000000000000000000000000602082015250565b6132bb81612b19565b81146132c657600080fd5b50565b6132d281612b2b565b81146132dd57600080fd5b50565b6132e981612b37565b81146132f457600080fd5b50565b61330081612b83565b811461330b57600080fd5b5056fea26469706673582212207e5c263360fb01d74dba81d5c1b2c8bdfb2dabb9f727ed815eaafc980d2057ca64736f6c63430008070033",
  "devdoc": {
    "kind": "dev",
    "methods": {
      "approve(address,uint256)": {
        "details": "See {IERC721-approve}."
      },
      "balanceOf(address)": {
        "details": "See {IERC721-balanceOf}."
      },
      "getApproved(uint256)": {
        "details": "See {IERC721-getApproved}."
      },
      "isApprovedForAll(address,address)": {
        "details": "See {IERC721-isApprovedForAll}."
      },
      "name()": {
        "details": "See {IERC721Metadata-name}."
      },
      "owner()": {
        "details": "Returns the address of the current owner."
      },
      "ownerOf(uint256)": {
        "details": "See {IERC721-ownerOf}."
      },
      "renounceOwnership()": {
        "details": "Leaves the contract without owner. It will not be possible to call `onlyOwner` functions anymore. Can only be called by the current owner. NOTE: Renouncing ownership will leave the contract without an owner, thereby removing any functionality that is only available to the owner."
      },
      "safeTransferFrom(address,address,uint256)": {
        "details": "See {IERC721-safeTransferFrom}."
      },
      "safeTransferFrom(address,address,uint256,bytes)": {
        "details": "See {IERC721-safeTransferFrom}."
      },
      "setApprovalForAll(address,bool)": {
        "details": "See {IERC721-setApprovalForAll}."
      },
      "supportsInterface(bytes4)": {
        "details": "See {IERC165-supportsInterface}."
      },
      "symbol()": {
        "details": "See {IERC721Metadata-symbol}."
      },
      "tokenURI(uint256)": {
        "details": "See {IERC721Metadata-tokenURI}."
      },
      "transferFrom(address,address,uint256)": {
        "details": "See {IERC721-transferFrom}."
      },
      "transferOwnership(address)": {
        "details": "Transfers ownership of the contract to a new account (`newOwner`). Can only be called by the current owner."
      }
    },
    "version": 1
  },
  "userdoc": {
    "kind": "user",
    "methods": {},
    "version": 1
  },
  "storageLayout": {
    "storage": [
      {
        "astId": 130,
        "contract": "contracts/LOUVRENFT.sol:LOUVRENFT",
        "label": "_name",
        "offset": 0,
        "slot": "0",
        "type": "t_string_storage"
      },
      {
        "astId": 132,
        "contract": "contracts/LOUVRENFT.sol:LOUVRENFT",
        "label": "_symbol",
        "offset": 0,
        "slot": "1",
        "type": "t_string_storage"
      },
      {
        "astId": 136,
        "contract": "contracts/LOUVRENFT.sol:LOUVRENFT",
        "label": "_owners",
        "offset": 0,
        "slot": "2",
        "type": "t_mapping(t_uint256,t_address)"
      },
      {
        "astId": 140,
        "contract": "contracts/LOUVRENFT.sol:LOUVRENFT",
        "label": "_balances",
        "offset": 0,
        "slot": "3",
        "type": "t_mapping(t_address,t_uint256)"
      },
      {
        "astId": 144,
        "contract": "contracts/LOUVRENFT.sol:LOUVRENFT",
        "label": "_tokenApprovals",
        "offset": 0,
        "slot": "4",
        "type": "t_mapping(t_uint256,t_address)"
      },
      {
        "astId": 150,
        "contract": "contracts/LOUVRENFT.sol:LOUVRENFT",
        "label": "_operatorApprovals",
        "offset": 0,
        "slot": "5",
        "type": "t_mapping(t_address,t_mapping(t_address,t_bool))"
      },
      {
        "astId": 1117,
        "contract": "contracts/LOUVRENFT.sol:LOUVRENFT",
        "label": "_tokenURIs",
        "offset": 0,
        "slot": "6",
        "type": "t_mapping(t_uint256,t_string_storage)"
      },
      {
        "astId": 7,
        "contract": "contracts/LOUVRENFT.sol:LOUVRENFT",
        "label": "_owner",
        "offset": 0,
        "slot": "7",
        "type": "t_address"
      },
      {
        "astId": 1946,
        "contract": "contracts/LOUVRENFT.sol:LOUVRENFT",
        "label": "tokenCounter",
        "offset": 0,
        "slot": "8",
        "type": "t_uint256"
      }
    ],
    "types": {
      "t_address": {
        "encoding": "inplace",
        "label": "address",
        "numberOfBytes": "20"
      },
      "t_bool": {
        "encoding": "inplace",
        "label": "bool",
        "numberOfBytes": "1"
      },
      "t_mapping(t_address,t_bool)": {
        "encoding": "mapping",
        "key": "t_address",
        "label": "mapping(address => bool)",
        "numberOfBytes": "32",
        "value": "t_bool"
      },
      "t_mapping(t_address,t_mapping(t_address,t_bool))": {
        "encoding": "mapping",
        "key": "t_address",
        "label": "mapping(address => mapping(address => bool))",
        "numberOfBytes": "32",
        "value": "t_mapping(t_address,t_bool)"
      },
      "t_mapping(t_address,t_uint256)": {
        "encoding": "mapping",
        "key": "t_address",
        "label": "mapping(address => uint256)",
        "numberOfBytes": "32",
        "value": "t_uint256"
      },
      "t_mapping(t_uint256,t_address)": {
        "encoding": "mapping",
        "key": "t_uint256",
        "label": "mapping(uint256 => address)",
        "numberOfBytes": "32",
        "value": "t_address"
      },
      "t_mapping(t_uint256,t_string_storage)": {
        "encoding": "mapping",
        "key": "t_uint256",
        "label": "mapping(uint256 => string)",
        "numberOfBytes": "32",
        "value": "t_string_storage"
      },
      "t_string_storage": {
        "encoding": "bytes",
        "label": "string",
        "numberOfBytes": "32"
      },
      "t_uint256": {
        "encoding": "inplace",
        "label": "uint256",
        "numberOfBytes": "32"
      }
    }
  }
}